:100000000C945D000C9485000C9485000C94850084
:100010000C9485000C9485000C9485000C9485004C
:100020000C9485000C9485000C9485000C9485003C
:100030000C9485000C9485000C9485000C9485002C
:100040000C9479020C9485000C94E9020C94C30280
:100050000C9485000C9485000C9485000C9485000C
:100060000C9485000C94850000000008000201003B
:100070000003040700000000000000000000000072
:10008000250028002B0000000000240027002A0083
:10009000040404040404040402020202020203032E
:1000A0000303030301020408102040800102040836
:1000B0001020010204081020EE0811241FBECFEF0B
:1000C000D8E0DEBFCDBF11E0A0E0B1E0E6EDF4E1A5
:1000D00002C005900D92AA31B107D9F723E0AAE139
:1000E000B1E001C01D92AF32B207E1F710E0CDE5FB
:1000F000D0E004C02197FE010E945E0ACC35D107F2
:10010000C9F70E941B030C94690A0C94000090E04C
:10011000FC01EC55FF4F2491FC01E057FF4F849107
:10012000882399F090E0880F991FFC01EA57FF4F50
:10013000A591B491FC01E458FF4F859194918FB73C
:10014000F894EC91E22BEC938FBF089590E0FC01C2
:10015000E859FF4F2491FC01EC55FF4F3491FC010D
:10016000E057FF4FE491EE2309F43CC0222339F11C
:10017000233091F038F42130A9F0223001F584B514
:100180008F7D12C0273091F02830A1F02430B9F4CF
:10019000809180008F7D03C0809180008F77809355
:1001A00080000DC084B58F7784BD09C08091B000F8
:1001B0008F7703C08091B0008F7D8093B000F0E016
:1001C000EE0FFF1FE458FF4FA591B4919FB7F8942D
:1001D000611104C08C913095382302C0EC913E2B04
:1001E0003C939FBF08958E3008F08E5087708064D6
:1001F00080937C0080917A00806480937A00809163
:100200007A0086FDFCCF809178002091790090E003
:10021000922B08953FB7F89480912B0390912C0373
:10022000A0912D03B0912E0326B5A89B05C02F3FAA
:1002300019F00196A11DB11D3FBFBA2FA92F982F0C
:100240008827820F911DA11DB11DBC01CD0142E087
:10025000660F771F881F991F4A95D1F708952FB70A
:10026000F89460912703709128038091290390915D
:100270002A032FBF0895CF92DF92EF92FF920F9340
:100280001F93CF93DF936C017A018B01C0E0D0E024
:10029000CE15DF0581F0D8016D918D01D601ED916C
:1002A000FC910190F081E02DC6010995892B11F098
:1002B0002196EECF7E01C701DF91CF911F910F9163
:1002C000FF90EF90DF90CF900895089580E090E048
:1002D0000895FC01538D448D252F30E0842F90E04C
:1002E000821B930B541710F0CF9608950197089531
:1002F000FC01918D828D981761F0828DDF01A80F2E
:10030000B11D5D968C91928D9F5F9F73928F90E04F
:1003100008958FEF9FEF0895FC01918D828D9817BE
:1003200031F0828DE80FF11D858D90E008958FEFFB
:100330009FEF0895FC01918D228D892F90E0805CC4
:100340009F4F821B91098F739927089582E291E054
:100350000E949A0121E0892B09F420E0822F089560
:10036000FC01848DDF01A80FB11DA35ABF4F2C9152
:10037000848D90E001968F739927848FA689B78921
:100380002C93A089B1898C91837080648C93938D18
:10039000848D981306C00288F389E02D80818F7DBB
:1003A00080830895EF92FF920F931F93CF93DF9373
:1003B000EC0181E0888F9B8D8C8D981305C0E889B6
:1003C000F989808185FD26C0F62E0B8D10E00F5F28
:1003D0001F4F0F731127E02E8C8DE8120CC00FB643
:1003E00007FCFACFE889F989808185FFF5CFCE0136
:1003F0000E94B001F1CF8B8DFE01E80FF11DE35A91
:10040000FF4FF0829FB7F8940B8FEA89FB898081B8
:1004100080620AC09FB7F894EE89FF896083E889FB
:10042000F98980818370806480839FBF81E090E040
:10043000DF91CF911F910F91FF90EF900895CF938F
:10044000DF93EC01888D8823C9F0EA89FB898081DC
:1004500085FD05C0A889B9898C9186FD0FC00FB6AE
:1004600007FCF5CF808185FFF2CFA889B9898C91EF
:1004700085FFEDCFCE010E94B001E7CFDF91CF9194
:10048000089580E090E0892B29F00E94A601811157
:100490000C940000089580E090E00E94BD098093D4
:1004A0001A01813039F020F0823021F48AE003C053
:1004B00082E001C085E08093980208950E94640A5A
:1004C000FF920F931F93CF93DF93EC01F62E0881D9
:1004D0001981C8010E94BD09F81621F06F2DC801CD
:1004E0000E94C509CE01DF91CF911F910F91FF901E
:1004F00008951F920F920FB60F9211242F933F93DE
:100500008F939F93AF93BF9380912703909128037C
:10051000A0912903B0912A033091260323E0230FF1
:100520002D3720F40196A11DB11D05C026E8230F2B
:100530000296A11DB11D209326038093270390935B
:100540002803A0932903B0932A0380912B03909151
:100550002C03A0912D03B0912E030196A11DB11D76
:1005600080932B0390932C03A0932D03B0932E0321
:10057000BF91AF919F918F913F912F910F900FBE9F
:100580000F901F9018951F920F920FB60F92112483
:100590002F933F934F935F936F937F938F939F938B
:1005A000AF93BF93EF93FF9382E291E00E94B0017B
:1005B000FF91EF91BF91AF919F918F917F916F913B
:1005C0005F914F913F912F910F900FBE0F901F9011
:1005D00018951F920F920FB60F9211242F938F939D
:1005E0009F93EF93FF93E0913201F091330180816B
:1005F000E0913801F091390182FD12C09081809123
:100600003B018F5F8F7320913C01821751F0E09185
:100610003B01F0E0EE5DFE4F958F80933B0101C002
:100620008081FF91EF919F918F912F910F900FBE3D
:100630000F901F901895CF93DF93CDB7DEB7A1979A
:100640000FB6F894DEBF0FBECDBF789484B582603C
:1006500084BD84B5816084BD85B5826085BD85B566
:10066000816085BD80916E00816080936E001092E4
:10067000810080918100826080938100809181005F
:1006800081608093810080918000816080938000F0
:100690008091B10084608093B1008091B00081604E
:1006A0008093B00080917A00846080937A0080917A
:1006B0007A00826080937A0080917A0081608093D2
:1006C0007A0080917A00806880937A001092C1004D
:1006D000E0913201F091330182E08083E0912E01BC
:1006E000F0912F011082E0913001F09131018FECF7
:1006F000808310923A01E0913601F091370186E053
:100700008083E0913401F0913501808180618083A4
:10071000E0913401F0913501808188608083E0911F
:100720003401F0913501808180688083E09134014B
:10073000F091350180818F7D8083109221018DEFB2
:1007400093E00E94BD09082F8EEF93E00E94BD093F
:10075000182F8FEF93E00E94BD09011105C01A35D3
:1007600019F4813109F448C01A82198261E0CE017E
:1007700001960E9460028DEF93E09A83898360E086
:10078000CE0101960E9460028EEF93E09A838983E6
:100790006AE5CE0101960E9460028FEF93E09A8392
:1007A000898361E1CE0101960E9460020E940A01E4
:1007B0004B015C0184E6C82ED12CE12CF12C0E9467
:1007C0000A01DC01CB0188199909AA09BB09883EF5
:1007D0009340A105B10598F321E0C21AD108E108C0
:1007E000F10888EE880E83E0981EA11CB11CC1148C
:1007F000D104E104F10419F70E944B028EEC84B994
:1008000085B1189A8AB18C6F8AB98BB14F9A82E000
:100810000E94870084E00E94870083E00E94870096
:1008200085E00E94870086E00E94870083E10E94A5
:10083000F300BC01990F880B990B611571058105B7
:10084000910511F00E94B40983B1811129C081E0A2
:10085000809321010E944B0281E10E94F3007C0100
:100860009093A6028093A50282E10E94F3008C017E
:100870009093A4028093A30283E10E94F3009093DB
:10088000A2028093A102F0922001E0921F01109336
:100890001E0100931D0190931C0180931B0104C055
:1008A000109221010E944B0280912101882309F4BA
:1008B0007EC081E10E94F3008C019093A602809398
:1008C000A50282E10E94F3009093A4028093A30208
:1008D00083E10E94F3009093A2028093A102809191
:1008E0001F01909120019C01275F3F4F2017310786
:1008F00024F00997081719075CF41093200100935E
:100900001F011A82198260E0CE0101960E946002E6
:1009100080911D0190911E012091A3023091A402AB
:10092000AC01475F5F4F4217530724F00997281720
:1009300039075CF430931E0120931D011A8219823D
:1009400061E0CE0101960E94600280911B019091AE
:100950001C012091A1023091A202AC01475F5F4FC0
:100960004217530724F00997281739075CF430938E
:100970001C0120931B011A82198262E0CE010196AC
:100980000E9460020E944B0280911A01813061F046
:1009900038F0823009F088CF81E085B9199A84CF88
:1009A00081E085B91B9A80CF85B91A9A7DCF2091B5
:1009B000980230E040E050E019A28E010F5D1F4F19
:1009C0008AE0C82ED12CE12CF12CCA01B901A70173
:1009D00096010E94050A605DD8016E938D01211574
:1009E00031054105510589F7109769F0FD01019026
:1009F0000020E9F73197AF014A1B5B0BBD0182E292
:100A000091E00E943B0142E050E066E171E082E249
:100A100091E00E943B01A3EF4A2EA3E05A2E612CE5
:100A2000712CB9E02B2EB3E03B2E10921A031D99C6
:100A300003C081E08093C0018091C001882399F0B8
:100A40001D9B06C08091BF018F5F8093BF0102C0D4
:100A50001092BF018091BF01853029F481E080931D
:100A60001A031092C001109225031C9903C081E063
:100A70008093C2018091C201882399F01C9B06C01B
:100A80008091C1018F5F8093C10102C01092C101AA
:100A90008091C101853029F481E080932503109273
:100AA000C20180919502882319F105E512E00E94A8
:100AB0006609A30192010E94D309F8016193719321
:100AC0008F01F5E98F2EF2E09F2E8016910679F7BF
:100AD0000E942F016093CB017093CC018093CD01D4
:100AE0009093CE0161E083E00E94A60010929502EF
:100AF00080915202882309F102E112E00E94660906
:100B0000A30192010E94D309D8016D937D938D01B9
:100B1000E2E5F2E0EA17FB0789F70E942F016093F4
:100B2000C3017093C4018093C5019093C60161E035
:100B300086E00E94A6001092520280910F02882344
:100B400009F10FEC11E00E946609A30192010E94D5
:100B5000D309D8016D937D938D01EFE0F2E0EA17A0
:100B6000FB0789F70E942F016093C7017093C801AA
:100B70008093C9019093CA0161E085E00E94A600BC
:100B800010920F02809125038823E9F00E942F0123
:100B90006093210370932203809323039093240393
:100BA00061E084E00E94A600EFE18E2E912C9092ED
:100BB000200380921F0390921E0380921D03909247
:100BC0001C0380921B0380911A03882309F413C12C
:100BD0000E942F01609316037093170380931803EC
:100BE00090931903C0901F03D09020032FEFC21AD7
:100BF000D20AD0922003C0921F03E0901D03F09010
:100C00001E038FEFE81AF80AF0921E03E0921D030C
:100C100000911B0310911C030F5F1F4F10931C03C7
:100C200000931B0361E082E00E94A60090E2C916D7
:100C3000D10424F01092200310921F03A0E2EA16C0
:100C4000F10424F010921E0310921D0300321105CE
:100C500024F010921C0310921B0300911F031091AB
:100C60002003109315030093140380911D039091AA
:100C70001E03909313038093120380911B039091A2
:100C80001C0390931103809310038EE00E94F300E5
:100C90006C0190930F0380930E038FE00E94F3008A
:100CA0007C0190930D0380930C0380E10E94F3007C
:100CB00090930B0380930A03B4EFCB16B3E0DB06EB
:100CC00044F081E08093090361E083E00E94A60084
:100CD00006C0F801E751FD4F808180930903E4EFDE
:100CE000EE16E3E0FE0644F081E08093E80261E066
:100CF00085E00E94A60009C0E0911203F091130361
:100D0000E853FD4F80818093E80280910A0390911F
:100D10000B03843F934044F081E08093C70261E07D
:100D200086E00E94A60009C0E0911003F091110333
:100D3000E955FD4F80818093C7028091090381119D
:100D40001B9A8091E80281111A9A8091C702811141
:100D5000199A81E10E94F3007C019093A60280938E
:100D6000A50282E10E94F3008C019093A40280937B
:100D7000A30283E10E94F3009093A2028093A10258
:100D800020910E0330910F032E0D3F1D3093A002D2
:100D900020939F0240910C0350910D03040F151FE7
:100DA00010939E0200939D0240910A0350910B0301
:100DB000840F951F90939C0280939B02C901330F6F
:100DC000AA0BBB0B9C01AD0121503109410951090E
:100DD000A7E0B0E00E94F2092CEF33E040E050E0E1
:100DE0000E94D309DA01C9010196A11DB11D90939A
:100DF0009A02809399020E942F0120919802C0903C
:100E00001603D0901703E0901803F09019034601E1
:100E10005701820E911CA11CB11C681579058A0529
:100E20009B0530F081E085B960E082E00E94A60079
:100E3000809196029091970220919F023091A0029A
:100E4000AC014E5F5F4F42175307A4F0029728177B
:100E5000390784F0209153023091540280919B0213
:100E600090919C02A9014E5F5F4F481759070CF4FF
:100E70009AC084C0309397022093960223303105A4
:100E80000CF470C0233F83E038075CF08091A5022A
:100E90009091A602843F9340ECF2E9EEF2E081E00B
:100EA00068C081E0809395028093E90200919902E5
:100EB00010919A02E9EEF2E075E5C72E72E0D72EA6
:100EC00056017F01480141E0C40160E170E00E94E9
:100ED000360AD701801791075CF411964C93D5011F
:100EE00012968D919C911397821793071CF0D7014E
:100EF00011961C92800E911EBFEFEB1AFB0A82E046
:100F0000A80EB11CA8EFB2E0AE15BF05E9F6580176
:100F100064E0AA0CBB1C6A95E1F7E12CF12C41E0DE
:100F2000C5018E0D9F1D60E170E00E94360A80179A
:100F300091074CF4408BD60190968D919C9191979E
:100F4000821793070CF0108AE00EF11E3196B2E082
:100F5000CB0ED11C59EF852E52E0952E8E169F0692
:100F6000F9F694CFE9EEF2E011922E163F06E1F782
:100F70008DCF81932E163F06E1F76CCF22503109B9
:100F80008217930784F02091100230911102809112
:100F90009D0290919E02A9014E5F5F4F481759072D
:100FA0000CF470C04CC09093540280935302833071
:100FB000910544F1833F23E092077CF521E02093E3
:100FC0005202A2E1B2E0E7EAF2E027EC32E061E0AF
:100FD0004D915D914817590714F4608301C0108248
:100FE00031962E173F07A1F70E94660920E230E0F4
:100FF00040E050E00E94D309FB01E955FD4F81E03C
:1010000080830BC0E7EAF2E0119282E0E73CF80748
:10101000D9F710925402109253028091A10290913C
:10102000A202843F93400CF4AECFE7EAF2E087ECF3
:1010300092E021E021938E179F07E1F7A4CF225081
:10104000310982179307F4F00E942F01C090980293
:10105000D12CE12CF12C009121031091220320913D
:101060002303309124030C0D1D1D2E1D3F1D601701
:1010700071078207930708F469C060E084E00E946A
:10108000A60064C0909311028093100283309105F2
:101090000CF44EC0833FB3E09B076CF08091A30239
:1010A0009091A402843F93407CF2E8ECF2E088EE59
:1010B00092E021E046C021E020930F0229EEE22ECB
:1010C00022E0F22E47EA52E0E8ECF2E02FEC31E0C9
:1010D00011E0D7017D917D01DA016D91AD017613AB
:1010E00008C0D9016D917C916817790714F41083B9
:1010F00001C0108231962E5F3F4F2E143F0449F7F6
:1011000080E090E021E0FC01E751FD4F4081FC01CF
:10111000E955FD4F3081431306C0FC01E853FD4FF4
:10112000208380E290E001968032910564F3B6CF8F
:10113000E8ECF2E088EE92E011928E179F07E1F75B
:10114000ADCF21938E179F07E1F77ECF0E942F012D
:101150000091CB011091CC012091CD013091CE01B5
:101160000C0D1D1D2E1D3F1D601771078207930773
:1011700020F060E083E00E94A6000E942F01009111
:10118000C7011091C8012091C9013091CA010C0D0D
:101190001D1D2E1D3F1D601771078207930720F04C
:1011A00060E085E00E94A6000E942F010091C3012B
:1011B0001091C4012091C5013091C601C00ED11E0D
:1011C000E21EF31E6C157D058E059F0520F060E084
:1011D00086E00E94A6000E94410227CCE2E2F1E0F4
:1011E0001382128288EE93E0A0E0B0E084839583BE
:1011F000A683B78388E091E09183808385EC90E0BB
:101200009587848784EC90E09787868780EC90E0D0
:10121000918B808B81EC90E0938B828B82EC90E0C1
:10122000958B848B86EC90E0978B868B118E128E3B
:10123000138E148E08958F929F92AF92BF92CF9289
:10124000DF92EF92FF92CF93DF93EC016881798177
:101250008A819B81611571058105910521F464E204
:1012600079ED8BE597E02DE133EF41E050E00E940E
:10127000D30949015A019B01AC01A7EAB1E40E94DC
:10128000F2096B017C01ACEEB4EFA50194010E9460
:10129000000ADC01CB018C0D9D1DAE1DBF1DB7FFEB
:1012A00003C00197A109B04888839983AA83BB83AF
:1012B000BC01CD019F77DF91CF91FF90EF90DF9040
:1012C000CF90BF90AF909F908F9008958F929F92F4
:1012D000AF92BF92CF92DF92EF92FF9260910001A6
:1012E00070910101809102019091030161157105D6
:1012F0008105910521F464E279ED8BE597E02DE11C
:1013000033EF41E050E00E94D30949015A019B01AB
:10131000AC01A7EAB1E40E94F2096B017C01ACEEDA
:10132000B4EFA50194010E94000ADC01CB018C0DF1
:101330009D1DAE1DBF1DB7FF03C00197A109B04899
:101340008093000190930101A0930201B0930301E7
:10135000BC01CD019F77FF90EF90DF90CF90BF90C1
:10136000AF909F908F90089560930001709301015A
:1013700080930201909303010895F999FECF92BDE5
:1013800081BDF89A992780B50895262FF999FECF47
:101390001FBA92BD81BD20BD0FB6F894FA9AF99A92
:1013A0000FBE01960895052E97FB1EF400940E942F
:1013B000EA0957FD07D00E94050A07FC03D04EF446
:1013C0000C94EA0950954095309521953F4F4F4F29
:1013D0005F4F089590958095709561957F4F8F4FE1
:1013E0009F4F08950E94270AA59F900DB49F900DCE
:1013F000A49F800D911D11240895B7FF0C94F2094C
:101400000E94F209821B930B0895A1E21A2EAA1BD7
:10141000BB1BFD010DC0AA1FBB1FEE1FFF1FA217A4
:10142000B307E407F50720F0A21BB30BE40BF50BA1
:10143000661F771F881F991F1A9469F7609570952A
:10144000809590959B01AC01BD01CF010895A29FAD
:10145000B001B39FC001A39F700D811D1124911D88
:10146000B29F700D811D1124911D089597FB072EC9
:1014700016F4009407D077FD09D00E944A0A07FCB1
:1014800005D03EF4909581959F4F08957095619594
:101490007F4F0895AA1BBB1B51E107C0AA1FBB1FAA
:1014A000A617B70710F0A61BB70B881F991F5A95F0
:1014B000A9F780959095BC01CD010895EE0FFF1F0F
:1014C0000590F491E02D099481E090E0F8940C945B
:0614D000690AF894FFCF49
:1014D6000100000000000000D2013B0169011F026B
:0A14E6009A0178018C010D0A000044
:00000001FF
